:100000000C945D000C9485000C9485000C94850084
:100010000C9485000C9485000C9485000C9485004C
:100020000C9485000C9485000C9485000C9485003C
:100030000C9485000C9485000C9485000C9485002C
:100040000C94B5020C9485000C9483020C945D0210
:100050000C9485000C9485000C9485000C9485000C
:100060000C9485000C94850000000008000201003B
:100070000003040700000000000000000000000072
:10008000250028002B0000000000240027002A0083
:10009000040404040404040402020202020203032E
:1000A0000303030301020408102040800102040836
:1000B0001020010204081020550411241FBECFEFA8
:1000C000D8E0DEBFCDBF21E0A8E1B1E001C01D92C4
:1000D000AC3DB207E1F711E0A0E0B1E0E0E3F9E008
:1000E00002C005900D92A831B107D9F710E0CDE517
:1000F000D0E004C02197FE010E948204CC35D107D4
:10010000C9F70E94FF020C9496040C94000090E042
:10011000FC01EC55FF4F2491FC01E057FF4F849107
:10012000882399F090E0880F991FFC01EA57FF4F50
:10013000A591B491FC01E458FF4F859194918FB73C
:10014000F894EC91E22BEC938FBF0895CF92DF925D
:10015000EF92FF920F931F93CF93DF936C017A017D
:100160008B01C0E0D0E0CE15DF0589F0D8016D919C
:100170008D01D601ED91FC910190F081E02DC60139
:100180000995892B11F47E0102C02196ECCFC7019D
:10019000DF91CF911F910F91FF90EF90DF90CF9063
:1001A0000895089580E090E00895FC01538D448DFA
:1001B000252F30E0842F90E0821B930B541710F012
:1001C000CF96089501970895FC01918D828D98171F
:1001D00061F0828DDF01A80FB11D5D968C91928D2B
:1001E0009F5F9F73928F90E008958FEF9FEF089528
:1001F000FC01918D828D981731F0828DE80FF11DF1
:10020000858D90E008958FEF9FEF0895FC01918D0B
:10021000228D892F90E0805C9F4F821B91098F7304
:10022000992708958DE391E00E94060121E0892B32
:1002300009F420E0822F0895FC01848DDF01A80FCE
:10024000B11DA35ABF4F2C91848D90E001968F73FE
:100250009927848FA689B7892C93A089B1898C911D
:1002600080648C93938D848D981306C00288F389E3
:10027000E02D80818F7D80830895EF92FF920F9310
:100280001F93CF93DF93EC0181E0888F9B8D8C8D42
:10029000981305C0E889F989808185FD24C0F62E70
:1002A0000B8D10E00F5F1F4F0F731127E02E8C8D09
:1002B000E8120CC00FB607FCFACFE889F9898081F3
:1002C00085FFF5CFCE010E941C01F1CF8B8DFE0181
:1002D000E80FF11DE35AFF4FF0820B8FEA89FB898B
:1002E0008081806207C0EE89FF896083E889F9898F
:1002F00080818064808381E090E0DF91CF911F91C5
:100300000F91FF90EF900895CF93DF93EC01888DCC
:100310008823C9F0EA89FB89808185FD05C0A88909
:10032000B9898C9186FD0FC00FB607FCF5CF80818F
:1003300085FFF2CFA889B9898C9185FFEDCFCE01D9
:100340000E941C01E7CFDF91CF91089580E090E0FB
:10035000892B29F00E94120181110C94000008954C
:1003600090E0FC01E859FF4F3491FC01EC55FF4F40
:100370002491FC01E057FF4FE491EE2309F43BC0C8
:10038000332339F1333091F038F43130A9F0323081
:1003900001F584B58F7D12C0373091F03830A1F06F
:1003A0003430B9F4809180008F7D03C0809180004B
:1003B0008F77809380000DC084B58F7784BD09C08E
:1003C0008091B0008F7703C08091B0008F7D8093C3
:1003D000B000F0E0EE0FFF1FE458FF4FA591B4917D
:1003E0008FB7F894EC91611103C020952E2301C0C2
:1003F0002E2B2C938FBF08953FB7F894809119014D
:1004000090911A01A0911B01B0911C0126B5A89BE7
:1004100005C02F3F19F00196A11DB11D3FBFBA2F96
:10042000A92F982F8827820F911DA11DB11DBC01F6
:10043000CD0142E0660F771F881F991F4A95D1F7BB
:1004400008958F929F92AF92BF92CF92DF92EF92D8
:10045000FF926B017C010E94FC014B015C01C11405
:10046000D104E104F104F1F00E94FC01DC01CB01B4
:1004700088199909AA09BB09883E9340A105B105CD
:1004800070F321E0C21AD108E108F10888EE880E65
:1004900083E0981EA11CB11CC114D104E104F10435
:1004A00019F7DDCFFF90EF90DF90CF90BF90AF9026
:1004B0009F908F9008950E9488041F920F920FB60C
:1004C0000F9211242F933F934F935F936F937F93DA
:1004D0008F939F93AF93BF93EF93FF938DE391E03F
:1004E0000E941C01FF91EF91BF91AF919F918F915D
:1004F0007F916F915F914F913F912F910F900FBE20
:100500000F901F9018951F920F920FB60F92112403
:100510002F938F939F93EF93FF93E0914D01F09171
:100520004E018081E0915301F091540182FD12C08F
:100530009081809156018F5F8F73209157018217B0
:1005400051F0E0915601F0E0E35CFE4F958F80930F
:10055000560101C08081FF91EF919F918F912F9162
:100560000F900FBE0F901F9018951F920F920FB60D
:100570000F9211242F933F938F939F93AF93BF9329
:100580008091210190912201A0912301B091240139
:100590003091180123E0230F2D3720F40196A11D7F
:1005A000B11D05C026E8230F0296A11DB11D2093A1
:1005B00018018093210190932201A0932301B0930D
:1005C00024018091190190911A01A0911B01B09111
:1005D0001C010196A11DB11D8093190190931A0170
:1005E000A0931B01B0931C01BF91AF919F918F917C
:1005F0003F912F910F900FBE0F901F9018957894F8
:1006000084B5826084BD84B5816084BD85B5826017
:1006100085BD85B5816085BD80916E0081608093C8
:100620006E00109281008091810082608093810031
:100630008091810081608093810080918000816041
:10064000809380008091B10084608093B10080919C
:10065000B00081608093B00080917A0084608093C4
:100660007A0080917A00826080937A0080917A008B
:10067000816080937A0080917A00806880937A000C
:100680001092C100E0914D01F0914E0182E0808313
:10069000E0914901F0914A011082E0914B01F09103
:1006A0004C018FEC808310925501E0915101F09143
:1006B000520186E08083E0914F01F09150018081EA
:1006C00080618083E0914F01F091500180818860CA
:1006D0008083E0914F01F091500180818068808398
:1006E000E0914F01F091500180818F7D80838DE0FA
:1006F00090E0A0E0B0E08093410190934201A0938C
:100700004301B093440189E00E9487008AE00E947F
:1007100087008BE00E94870080E480937C008091BA
:100720007A00806480937A0080917A0086FDFCCF05
:10073000809178002091790090E0922B9093200195
:1007400080931F018CE390E0909326018093250114
:1007500086E990E090932801809327018CE291E054
:1007600090931E0180931D0181E090E09093DB0146
:100770008093DA018091DA019091DB01029779F59B
:1007800031C064E171E089E291E00E948D04892B1F
:1007900009F07DC0C6E0D0E061E08AE00E94B001CF
:1007A0006091270170912801072E000C880B990B8E
:1007B0000E94210206E010E060E08AE00E94B001A1
:1007C0006091250170912601072E000C880B990B72
:1007D0000E9421020150110979F72197E9F60E9440
:1007E000A601C8CF2FB7F8948091210190912201E2
:1007F000A0912301B09124012FBF809345019093D4
:100800004601A0934701B0934801E0913D01F0916A
:100810003E010284F385E02D8DE391E0099597FD7B
:1008200006C08A30910539F18093290124C02FB781
:10083000F8948091210190912201A0912301B0911F
:1008400024012FBF4091450150914601609147011D
:1008500070914801841B950BA60BB70B4091410189
:1008600050914201609143017091440184179507B2
:10087000A607B70750F262E171E089E291E00E94B9
:100880008D04892B09F07DCF61E089E00BC066E122
:1008900071E089E291E00E948D04892B09F09FCFDD
:1008A00061E08BE00E94B0019ACFEDE3F1E01382AA
:1008B000128288EE93E0A0E0B0E084839583A68363
:1008C000B78384E091E09183808385EC90E0958705
:1008D000848784EC90E09787868780EC90E0918B0A
:1008E000808B81EC90E0938B828B82EC90E0958BF7
:1008F000848B86EC90E0978B868B118E128E138EF4
:10090000148E0895EE0FFF1F0590F491E02D0994C9
:1009100081E090E0F8940C949604FB01DC018D9149
:10092000019080190110D9F3990B0895F894FFCF25
:10093000000000003D01A600D50084010601E4008E
:08094000F80072007900670065
:00000001FF
